{
  "contractName": "DocumentVerifier",
  "abi": [
    {
      "inputs": [
        {
          "internalType": "bytes32",
          "name": "",
          "type": "bytes32"
        }
      ],
      "name": "documents",
      "outputs": [
        {
          "internalType": "string",
          "name": "docType",
          "type": "string"
        },
        {
          "internalType": "address",
          "name": "issuer",
          "type": "address"
        },
        {
          "internalType": "uint256",
          "name": "timestamp",
          "type": "uint256"
        }
      ],
      "stateMutability": "view",
      "type": "function",
      "constant": true
    },
    {
      "inputs": [
        {
          "internalType": "bytes32",
          "name": "hash",
          "type": "bytes32"
        },
        {
          "internalType": "string",
          "name": "docType",
          "type": "string"
        }
      ],
      "name": "storeDocumentHash",
      "outputs": [],
      "stateMutability": "nonpayable",
      "type": "function"
    },
    {
      "inputs": [
        {
          "internalType": "bytes32",
          "name": "hash",
          "type": "bytes32"
        }
      ],
      "name": "verifyDocumentHash",
      "outputs": [
        {
          "internalType": "string",
          "name": "",
          "type": "string"
        },
        {
          "internalType": "address",
          "name": "",
          "type": "address"
        },
        {
          "internalType": "uint256",
          "name": "",
          "type": "uint256"
        }
      ],
      "stateMutability": "view",
      "type": "function",
      "constant": true
    }
  ],
  "bytecode": "0x608060405234801561001057600080fd5b5061096e806100206000396000f3fe608060405234801561001057600080fd5b50600436106100415760003560e01c8063083078161461004657806311efd0d7146100625780632b2805db14610094575b600080fd5b610060600480360381019061005b9190610657565b6100c6565b005b61007c600480360381019061007791906106b3565b6101d6565b60405161008b939291906107c2565b60405180910390f35b6100ae60048036038101906100a991906106b3565b610352565b6040516100bd939291906107c2565b60405180910390f35b6000806000848152602001908152602001600020600201541461011e576040517f08c379a00000000000000000000000000000000000000000000000000000000081526004016101159061084c565b60405180910390fd5b60405180606001604052808281526020013373ffffffffffffffffffffffffffffffffffffffff16815260200142815250600080848152602001908152602001600020600082015181600001908051906020019061017d929190610424565b5060208201518160010160006101000a81548173ffffffffffffffffffffffffffffffffffffffff021916908373ffffffffffffffffffffffffffffffffffffffff160217905550604082015181600201559050505050565b6060600080600080600086815260200190815260200160002060405180606001604052908160008201805461020a9061089b565b80601f01602080910402602001604051908101604052809291908181526020018280546102369061089b565b80156102835780601f1061025857610100808354040283529160200191610283565b820191906000526020600020905b81548152906001019060200180831161026657829003601f168201915b505050505081526020016001820160009054906101000a900473ffffffffffffffffffffffffffffffffffffffff1673ffffffffffffffffffffffffffffffffffffffff1673ffffffffffffffffffffffffffffffffffffffff16815260200160028201548152505090506000816040015103610335576040517f08c379a000000000000000000000000000000000000000000000000000000000815260040161032c90610918565b60405180910390fd5b806000015181602001518260400151935093509350509193909250565b60006020528060005260406000206000915090508060000180546103759061089b565b80601f01602080910402602001604051908101604052809291908181526020018280546103a19061089b565b80156103ee5780601f106103c3576101008083540402835291602001916103ee565b820191906000526020600020905b8154815290600101906020018083116103d157829003601f168201915b5050505050908060010160009054906101000a900473ffffffffffffffffffffffffffffffffffffffff16908060020154905083565b8280546104309061089b565b90600052602060002090601f0160209004810192826104525760008555610499565b82601f1061046b57805160ff1916838001178555610499565b82800160010185558215610499579182015b8281111561049857825182559160200191906001019061047d565b5b5090506104a691906104aa565b5090565b5b808211156104c35760008160009055506001016104ab565b5090565b6000604051905090565b600080fd5b600080fd5b6000819050919050565b6104ee816104db565b81146104f957600080fd5b50565b60008135905061050b816104e5565b92915050565b600080fd5b600080fd5b6000601f19601f8301169050919050565b7f4e487b7100000000000000000000000000000000000000000000000000000000600052604160045260246000fd5b6105648261051b565b810181811067ffffffffffffffff821117156105835761058261052c565b5b80604052505050565b60006105966104c7565b90506105a2828261055b565b919050565b600067ffffffffffffffff8211156105c2576105c161052c565b5b6105cb8261051b565b9050602081019050919050565b82818337600083830152505050565b60006105fa6105f5846105a7565b61058c565b90508281526020810184848401111561061657610615610516565b5b6106218482856105d8565b509392505050565b600082601f83011261063e5761063d610511565b5b813561064e8482602086016105e7565b91505092915050565b6000806040838503121561066e5761066d6104d1565b5b600061067c858286016104fc565b925050602083013567ffffffffffffffff81111561069d5761069c6104d6565b5b6106a985828601610629565b9150509250929050565b6000602082840312156106c9576106c86104d1565b5b60006106d7848285016104fc565b91505092915050565b600081519050919050565b600082825260208201905092915050565b60005b8381101561071a5780820151818401526020810190506106ff565b83811115610729576000848401525b50505050565b600061073a826106e0565b61074481856106eb565b93506107548185602086016106fc565b61075d8161051b565b840191505092915050565b600073ffffffffffffffffffffffffffffffffffffffff82169050919050565b600061079382610768565b9050919050565b6107a381610788565b82525050565b6000819050919050565b6107bc816107a9565b82525050565b600060608201905081810360008301526107dc818661072f565b90506107eb602083018561079a565b6107f860408301846107b3565b949350505050565b7f446f63756d656e7420616c7265616479206578697374732e0000000000000000600082015250565b60006108366018836106eb565b915061084182610800565b602082019050919050565b6000602082019050818103600083015261086581610829565b9050919050565b7f4e487b7100000000000000000000000000000000000000000000000000000000600052602260045260246000fd5b600060028204905060018216806108b357607f821691505b6020821081036108c6576108c561086c565b5b50919050565b7f446f63756d656e74206e6f7420666f756e642e00000000000000000000000000600082015250565b60006109026013836106eb565b915061090d826108cc565b602082019050919050565b60006020820190508181036000830152610931816108f5565b905091905056fea26469706673582212200d7c9cf93899e6d40a739ebba0f364c8ac27a4ceaf61a3b5d200c0ad5a07c0f964736f6c634300080d0033",
  "immutableReferences": {},
  "source": "// SPDX-License-Identifier: MIT\r\npragma solidity ^0.8.13;\r\n\r\ncontract DocumentVerifier {\r\n    struct Document {\r\n        string docType;\r\n        address issuer;\r\n        uint256 timestamp;\r\n    }\r\n\r\n    mapping(bytes32 => Document) public documents;\r\n\r\n    function storeDocumentHash(bytes32 hash, string memory docType) public {\r\n        require(documents[hash].timestamp == 0, \"Document already exists.\");\r\n        documents[hash] = Document(docType, msg.sender, block.timestamp);\r\n    }\r\n\r\n    function verifyDocumentHash(bytes32 hash) public view returns (string memory, address, uint256) {\r\n        Document memory doc = documents[hash];\r\n        require(doc.timestamp != 0, \"Document not found.\");\r\n        return (doc.docType, doc.issuer, doc.timestamp);\r\n    }\r\n}\r\n",
  "sourcePath": "C:\\Projeler\\blockchain\\blockchain-backend\\contracts\\DocumentVerifier.sol",
  "compiler": {
    "name": "solc",
    "version": "0.8.13+commit.abaa5c0e.Emscripten.clang"
  },
  "schemaVersion": "3.4.14",
  "updatedAt": "2025-06-09T12:02:57.049Z",
  "networkType": "ethereum",
  "devdoc": {
    "kind": "dev",
    "methods": {},
    "version": 1
  },
  "userdoc": {
    "kind": "user",
    "methods": {},
    "version": 1
  }
}